:020000040800F2
:10000000280800204D020008851C0008451B000838
:10001000211C000843040008E91F0008000000003C
:10002000000000000000000000000000891C000823
:100030005104000800000000871C00088B1C000809
:1000400067020008670200086702000867020008EC
:1000500067020008670200086702000867020008DC
:1000600067020008670200086702000867020008CC
:1000700067020008670200086702000867020008BC
:1000800067020008670200086702000867020008AC
:1000900045040008670200086702000867020008BC
:1000A000670200086702000867020008670200088C
:1000B000670200086702000867020008670200087C
:1000C000670200086702000867020008670200086C
:1000D00067020008DD1F00086702000867020008C9
:1000E000670200086702000867020008670200084C
:1000F000670200086702000867020008670200083C
:10010000670200086702000867020008670200082B
:10011000670200086702000867020008670200081B
:10012000670200086702000867020008670200080B
:1001300067020008670200086702000867020008FB
:1001400067020008670200086702000867020008EB
:1001500067020008670200086702000867020008DB
:1001600067020008670200086702000867020008CB
:10017000670200086702000867020008000000002C
:1001800067020008670200086702000867020008AB
:10019000670200086702000867020008670200089B
:1001A00000000000000000006702000800F002F8F4
:1001B00000F03CF80AA090E8000C82448344AAF1C5
:1001C0000107DA4501D100F031F8AFF2090EBAE8C3
:1001D0000F0013F0010F18BFFB1A43F0010318477B
:1001E0007420000094200000103A24BF78C878C121
:1001F000FAD8520724BF30C830C144BF04680C602D
:10020000704700000023002400250026103A28BF74
:1002100078C1FBD8520728BF30C148BF0B60704778
:100220001FB502F005F81FBD10B510BD00F0CFF8E6
:100230001146FFF7F5FF01F003FF00F0EDF803B4FE
:10024000FFF7F2FF03BC00F0F5F800000948804713
:1002500009480047FEE7FEE7FEE7FEE7FEE7FEE7A8
:10026000FEE7FEE7FEE7FEE704480549054A064BC0
:10027000704700002D1D0008AD0100082802002075
:1002800028080020280400202804002053EA020C3B
:1002900000F069802DE9F04B4FF00006002B1FBFE6
:1002A000B3FA83F503FA05F424FA05F65E4012BFAB
:1002B0001643B2FA82F502FA05F4C5F120051EBF15
:1002C00022FA05FC44EA0C04203556EA044C4FEAB5
:1002D000144418BF641C4FF000084FF0000990420E
:1002E00071EB030C39D3002919BFB1FA81F701FA78
:1002F00007F6B0FA80F700FA07F6C7F120071EBF2D
:1003000020FA07FC46EA0C062037B6FBF4FCA7EB04
:100310000507103F07F01F0BCBF120060CFA0BFB73
:100320002CFA06F644BFB3460026202FA4BF5E4633
:100330004FF0000B5BEA060C08BF4FF0010B19EB06
:100340000B09ABFB027C48EB0608C01B06FB02CC8A
:100350000BFB03CC71EB0C01C1E70B460246414697
:100360004846BDE8F08B13B54FF000004FF0000198
:10037000AFF30080BDE81C4070474FF0000200B5AD
:10038000134694469646203922BFA0E80C50A0E8B8
:100390000C50B1F12001BFF4F7AF090728BFA0E866
:1003A0000C5048BF0CC05DF804EB890028BF40F832
:1003B000042B08BF704748BF20F8022B11F0804F74
:1003C00018BF00F8012B704770477047704775469B
:1003D00000F02CF8AE4605006946534620F00700B1
:1003E000854618B020B5FFF73FFFBDE820404FF02D
:1003F00000064FF000074FF000084FF0000B21F00F
:100400000701AC46ACE8C009ACE8C009ACE8C009DB
:10041000ACE8C0098D46704710B50446AFF30080C4
:100420002046BDE81040FFF70ABF000000487047B3
:10043000C401002001491820ABBEFEE726000200DF
:100440007047FEE7014800F078B900005401002031
:10045000704772B6FEE790F82020012A07D0022AE2
:1004600005D0416A41F48021416201207047006853
:1004700042690A43426100207047F0B590F820506D
:100480000468A468012D05D0022D03D0416A41F40F
:1004900080214DE014F0406F01D1E50045D5C4F353
:1004A00001640125A5401D608D684FF4C0739DB1A6
:1004B000CE6835434E6845EAC605066803EB041767
:1004C000F5514FF4C275076805EB04150E697E51AE
:1004D000097D012905D009E00E88CD6845EA465519
:1004E000EBE701684E5946F480764E511179D2F807
:1004F00005504FF4C67641EA0521056806EB04165F
:10050000A9511178D2F801204FF4C47541EA0221B3
:10051000026805EB04155151006803EB04114258C1
:1005200042F0010242500020F0BD416A41F4001146
:1005300041620120F0BD000010B590F82020012A92
:1005400007D0022A05D0416A41F48021416201208E
:1005500010BD3B48D0F8002242F00102C0F8002252
:10056000D0F8002222F47C52C0F80022D0F80022F9
:100570004B6A42EA0322C0F800220A7D02F01F0300
:1005800001229A40D0F81C329343C0F81C32CB6948
:10059000B3B9D0F80C329343C0F80C328C894B6855
:1005A00064F31F434C6900EBC404C4F840320C8967
:1005B0000B6864F31F434C6900EBC404C4F8443275
:1005C000CB69012B16D1D0F80C321343C0F80C3292
:1005D0000C884B6864F31F434C6900EBC404C4F8F7
:1005E00040320C89CB6864F31F434C6900EBC404B0
:1005F000C4F844328B69002BD0F804320ED0134378
:10060000C0F804320B69002BD0F8143208D0134321
:10061000C0F81432096A012904D008E09343EFE7D7
:100620009343F5E7D0F81C121143C0F81C12D0F820
:10063000001221F00101C0F80012002010BD0000DE
:1006400000640040704770B590F82040012C05D040
:10065000022C03D0416A41F4802128E0046809B3E8
:100660002469A40720D04FF4D874056804EB011462
:100670002D5915F00405956005682D591AD0ED081F
:10068000556005682C5904F00204D4604FF4DA7404
:10069000056804EB01142E5906F00F06082E0CD342
:1006A00008250DE0E468DCE7416A41F4001141628D
:1006B000012070BD6D0D1560E3E72D5905F00F05A4
:1006C000156105682D59C5F30725956105682C59F5
:1006D000240C54614FF4DC72046802EB0112A4583C
:1006E0001C700468A458240A5C700468A458240C84
:1006F0009C700468A258120EDA704FF4DE7204681F
:1007000002EB0112A4581C710468A458240A5C71FD
:100710000468A458240C9C710468A258120EDA7163
:10072000006829B1016941F020010161002070BD1C
:10073000C16841F02001C160F8E72DE9F05F05468E
:10074000006800244669D0F804908768D0F80CB09F
:10075000D0F810A0D0F81880F10748D0F90714D0CD
:1007600001218160B80703D5284600F0E8FA0CE0C3
:10077000780702D54FF4006407E0380702D54FF43C
:10078000805402E0284600F0D9FAF80516D5296809
:100790004FF480708860B80503D5284600F0D1FA80
:1007A0000CE0780502D544F4005407E0380502D582
:1007B00044F4804402E0284600F0C2FAF80316D55B
:1007C00029684FF480308860B80303D5284600F0CC
:1007D000BAFA0CE0780302D544F4004407E0380389
:1007E00002D544F4803402E0284600F0ABFA30072A
:1007F00007D55FEACB6004D52968102044F4007463
:10080000C86070074FF0080707D55FEA0B7004D582
:100810002868C760284600F059F9B00706D528684F
:10082000C068800702D0284600F052F9700607D54C
:100830005FEACA6004D52968102044F48064086126
:10084000B00607D55FEA0A7004D528680761284614
:1008500000F044FAF00606D528680069800702D047
:10086000284600F03CFAB00308D55FEAC96005D518
:10087000296810204860284600F032FAF00307D5B6
:100880005FEA097004D528684760284600F05CFAE2
:10089000300446D55FEA497040D5F00504D55FEADB
:1008A000C87001D044F00104B00504D55FEA887037
:1008B00001D544F00204700504D55FEA487001D503
:1008C00044F00404300529D518F0700F26D008F044
:1008D0007000402815D006DC102809D020280AD046
:1008E000302816D10AE050280ED0602811D10EE031
:1008F00044F008040DE044F010040AE044F0200441
:1009000007E044F0400404E044F0800401E044F4D3
:1009100080742868816921F0700181612968042050
:100920004860002C05D0686A204368622846FFF7BB
:1009300089FEBDE8F09F70B5040003D094F8200054
:1009400010B104E0012070BD204600F081F820685D
:10095000016841F00101016000F06CFB05460526CD
:1009600004E000F067FB401B0A2811D820684068AB
:10097000C007F6D02068016821F00201016000F094
:1009800059FB05460BE000F055FB401B0A2806D931
:10099000606A40F40030606284F82060D2E720682A
:1009A00040688007EFD4207E0128206801683DD090
:1009B00021F080010160607E01282068016838D044
:1009C00021F040010160A07E01282068016833D039
:1009D00021F020010160E07E0128206801682ED00E
:1009E00041F010010160207F01282068016829D0B2
:1009F00021F008010160607F01282068016824D08F
:100A000021F004010160D4E902010843D4E9041291
:100A1000114308436168491E08432168C8610020EA
:100A20006062012084F82000002070BD41F0800148
:100A3000C0E741F04001C5E741F02001CAE721F0DD
:100A40001001CFE741F00801D4E741F00401D9E7F4
:100A500010B586B0044614216846FFF78EFC18498D
:100A60002068884229D117480021026842F00072AC
:100A70000260006800F000700590124810380268AB
:100A800042F001020260006800F0010005904FF49E
:100A9000C05000900220CDE90101032003900920FD
:100AA00004906946084800F0ABF9002201211420A7
:100AB00000F02EFB142000F01DFB06B010BD00005E
:100AC00000640040403802400000024070470000CF
:100AD000F0B574492DED028B87B088427ED1724B00
:100AE0006A460021FFF7AFFD70480099704A0B5C21
:100AF0006D49CBB14B780C7803EB04234FF4B474FD
:100B000013FB04F3DC1703EBD4435B1300EE103A42
:100B1000009BB8EEC00A02EB8303A3F5406383EDAC
:100B2000FF0A009C0023235448780B7800EB032035
:100B30004FF4B47310FB03F0C31700EBD340401322
:100B4000009B00EE100A02EB8306A6F54066B8EEA5
:100B5000C00AD6EDFF0A30EE601ADFED561A544C8B
:100B600081EE210A103C04EB8302A2F5406201EE03
:100B7000900A92EDFF1AF8EEE11A30EE010AB2EE99
:100B8000041A82EDFF0ACB78897803EB01210BB2BE
:100B9000B3F57A6F09DD71EEE00AF5EEC00AF1EE09
:100BA00010FA18D230EE010A13E071EEE01A424F4B
:100BB00011EE901AB942F5D801EE900A3F4FF8EEC7
:100BC000E11A71EEE00A10EE901AB94203DD30EE40
:100BD000410A82EDFF0A00EE100A00E05DE0B8EE87
:100BE000C00A9FED372ADFED371A86EDFF0A304E37
:100BF00000989FED351A9FED358A903EA0F5007064
:100C0000013802D002282AD112E0324AD4ED000A7B
:100C1000F2EE043AB0EE483AF1EE082A9FED2C0AC3
:100C200002F19001002001F017FA96ED040A11E09C
:100C3000284AD4ED020AF2EE043AB0EE483AF1EE58
:100C4000082A9FED250A02F19001022001F004FA22
:100C500096ED140ABDEEC00A10EE100A05B2124954
:100C60000098083101EB4000A0F58050A0F8FE5B31
:100C7000084600F0D7FFB0EE482AD4ED021A96EDF0
:100C8000101AD4ED000A96ED000AF0EE423AB0EEEA
:100C9000423AF0EE422A01F0A9F907B0BDEC028B0E
:100CA000F0BD00005401002004000020FFFDFF1FE4
:100CB0004401002000001042000034C3000034430F
:100CC0008FC2F53C6F12833ACDCCCC3D00000000C2
:100CD0000000E144240000200000B4437047704746
:100CE0007047000070B5044690F82000012804D039
:100CF000606A40F40020606218E0022084F820005E
:100D00002068016821F00101016000F093F90546B7
:100D10000EE000BF00F08EF9401B0A2808D9606A77
:100D200040F400306062052084F82000012070BD8E
:100D300020684068C007EDD1606270BD70477047A1
:100D4000704770477047704770472DE9F04104467F
:100D5000876D00F06FF9064694F8350000250228EB
:100D600006D08020606584F834500120BDE8F08111
:100D70002068016821F0160101602068416921F0B6
:100D800080014161206C08B9A06C20B12068016825
:100D900021F0080101602068016821F00101016073
:100DA0000CE000F047F9801B052807D9202060657A
:100DB000032084F8350084F83450D7E720680068B1
:100DC000C007EED194F85C103F208840B860012045
:100DD00084F8350084F834500020C7E790F83510C7
:100DE000022903D08021416501207047052180F848
:100DF00035100068016821F0010101600020704792
:100E00002DE9F84FDFF8F8A10022012403254FF067
:100E10000F090AF1040BAAF1040E00BF0B6804FAD3
:100E200002F63340B34270D10F7907F00307012F68
:100E300001D0022F16D187684FEA420805FA08FC54
:100E400027EA0C07D1F80CC00CFA08FC4CEA070C96
:100E5000C0F808C04768B7430E79C6F3001696403D
:100E60003E4346600E79F643B6070AD0C7684FEA9C
:100E7000420C05FA0CF6B7438E6806FA0CF63E43B0
:100E8000C6600E7906F00306022E10D1D60800EBDC
:100E90008608D8F8206057074FEAD76C09FA0CF794
:100EA000BE430F6907FA0CF73743C8F8207006688D
:100EB0004FEA420C05FA0CF7BE430F7907F003071F
:100EC00007FA0CF7374307604E6816F4403F1CD012
:100ED0004C4E376847F480473760366822F0030786
:100EE00006F480460096484E07EB060CDCF80868CE
:100EF00097073F0F09FA07F826EA0806DFF80C8182
:100F0000404503D14FF0000841E072E0DFF8008176
:100F1000404502D14FF0010839E0DFF8F880404544
:100F200002D14FF0020832E0DFF8EC80404502D1F8
:100F30004FF003082BE0DFF8E480404502D14FF08A
:100F4000040824E0DFF8D880404502D14FF00508BE
:100F50001DE0DFF8D080404502D14FF0060816E0D2
:100F6000DFF8C480404502D14FF007080FE0DFF8FA
:100F7000BC80404502D14FF0080808E0DFF8B0809F
:100F8000404502D14FF0090801E04FF00A0808FA85
:100F900007F848EA0608CCF80888DAF800605746EF
:100FA000D1F804C09E435FEACC2C00D51E433E60BE
:100FB000DBF800605F46D1F804C09E435FEA8C2CEA
:100FC00000D51E433E60DEF800607746D1F804C0CD
:100FD0009E435FEA8C3C00D51E433E60084F083FAD
:100FE0003E68D1F804C09E435FEACC3C00D51E4366
:100FF0003E60521C102AFFF411AFBDE8F88F0000CC
:10100000083C0140443802400030014000000240EA
:101010000004024000080240000C024000100240A0
:101020000014024000180240001C02400020024050
:10103000002402400148806870470000140000202E
:1010400002488168027811448160704714000020D2
:101050000B4810B5016841F400710160016841F46A
:1010600080610160016841F480710160032000F03B
:101070006FF80F2000F006F800F024F8002010BDF3
:10108000003C024070B50D4D04464FF47A7128784B
:10109000B1FBF0F00A490968B1FBF0F000F042FB47
:1010A00048B9102C07D200222146501E00F030F81B
:1010B00000206C6070BD012070BD00001400002095
:1010C000200000200A4808B5016841F48041016011
:1010D000006800F4804000900548001F016841F05E
:1010E00080510160006800F08050009008BD000051
:1010F00044380240002809DB00F01F020121914022
:101100004009800000F1E020C0F8001170470000A5
:10111000F0B40E4B1B680C46C3F30223C3F1070562
:10112000042D00D90425191D072901D2002300E050
:10113000DB1E012606FA05F1491E214099409E401A
:10114000761E16403143F0BC00F06ABF0CED00E0A3
:10115000064900F0070208684FF6FF03184040EA0E
:101160000220034A10430860704700000CED00E0C5
:101170000000FA052DE9F8431748016841F0805155
:1011800001600068154F00F08050012600903E6419
:10119000FFF750FF05464FF47A78114C05E000BF89
:1011A000FFF748FF401B40450DD86068C003F7D5E6
:1011B0007E64FFF73FFF0546464607E0FFF73AFF2C
:1011C000401BB04202D90320BDE8F8836068800369
:1011D000F4D50020F8E700004038024000000E423D
:1011E000007000402DE9F0470E46050065D0DFF89D
:1011F0001481D8F80000F7B200F00F00B04207D217
:1012000088F80070D8F8000000F00F00B04254D108
:1012100028683D4C810712D5400703D5206840F46B
:10122000E05020602878000703D5206840F4604033
:1012300020602068A96820F0F0000843206028782A
:10124000C0072DD0304968680839012812D002281B
:1012500013D0032811D00968890700292DDA2168E5
:1012600021F0030101432160FFF7E4FE814641F2D2
:10127000883A0EE009688903EFE709688901ECE71D
:10128000FFF7D8FEA0EB0901514502D90320BDE8C4
:10129000F0872068696800F00C00B0EB810FEFD197
:1012A000D8F80010404601F00F01B14207D907708D
:1012B000006800F00F00B04201D00120E7E7287875
:1012C000400705D52068E96820F4E0500843206015
:1012D0002878000706D52068296920F4604040EA94
:1012E000C100206000F038F82168084AC1F30311FA
:1012F000515CC8400649086006480068FFF7C2FE16
:101300000020C4E7003C0240083802403A220008AE
:1013100020000020180000200448054900680968E2
:10132000044AC1F38221515CC8407047200000206C
:10133000083802404A220008044805490068096844
:10134000044AC1F34231515CC8407047200000207C
:10135000083802404A220008154810B5006810F00D
:101360000C02144813D04110042A0FD0082A0ED1C1
:101370000F4C241F2268236802F03F025B0207D54E
:101380002068C0F38810A0FB010106E0084610BDEC
:101390002168C1F38811A1FB00010023FEF776FF4D
:1013A0002168C1F30141491C4900B0FBF1F010BDB7
:1013B000083802400024F4002DE9F84F04006ED0F4
:1013C0002078DFF84C93C007A9F104054AD009F151
:1013D00004000168C1F38101012908D00068C0F34D
:1013E000810002280AD1D9F80000400206D52868F9
:1013F000800337D560680028E1D033E06068B0F53D
:10140000803F10D0B0F5A02F286810D020F4803095
:101410002860286820F4802028606068A8B1FFF761
:1014200009FE06460DE0286840F48030F4E740F4F9
:1014300080202860F7E700BFFFF7FCFD801B6428D1
:1014400073D828688003F7D50CE0FFF7F3FD064654
:1014500005E000BFFFF7EEFD801B6428F0D8286888
:101460008003F7D42078DFF8AC8280074FF0000AC1
:101470003ED5A748001D016811F00C0F08D0006888
:10148000C0F3810002280BD1D9F80000400207D434
:101490002868800716D5E068012800D112E033E102
:1014A000E068B8B10120C8F80000FFF7C3FD0646A8
:1014B00005E000BFFFF7BEFD801B0228C0D82868EA
:1014C0008007F7D52868216920F0F80040EAC100BC
:1014D00028600DE0C8F800A0FFF7ACFD064604E068
:1014E000FFF7A8FD801B02281FD828688007F7D4C3
:1014F0002078000722D5864F87486169703771B11F
:1015000001210160FFF796FD064604E0FFF792FD1A
:10151000801B022809D838688007F7D50EE0C0F88C
:1015200000A0FFF787FD064605E082E0FFF782FD99
:10153000801B02287DD838688007F7D420784007C0
:1015400068D5DFF8CCB100270BF13C0BDBF80000CD
:10155000C0000BD4DBF8001041F08051CBF8001034
:10156000DBF80000012700F0805000906B4E3068DF
:10157000C00510D4306840F480703060FFF75AFD29
:10158000009005E0FFF756FD0099401A022850D858
:101590003068C005F6D55E4EA0686C3601280FD0C5
:1015A0000528306810D020F001003060306820F04D
:1015B00004003060A068B8B1FFF73CFD00900FE078
:1015C000306840F00100F4E740F004003060F7E7D5
:1015D000FFF730FD0099411A41F28830814266D808
:1015E00030688007F4D50EE0FFF724FD009007E097
:1015F000FFF720FD0099411A41F28830814256D808
:1016000030688007F4D42FB1DBF8001021F080514E
:10161000CBF80010A069C8B33D49091D0968C1F3A2
:10162000810102294AD00228504607D0C8F860003C
:1016300000E03CE0FFF7FEFC04463BE04746C8F80C
:101640006000FFF7F7FC064605E000BFFFF7F2FC7D
:10165000801B02282BD828688001F7D4D4E9070121
:101660000843A16A2E4A490802EB0141626A41EA35
:101670008211084394F82C1040EA0161C9F8001067
:1016800001203866FFF7D6FC044606E03EE000BFC6
:10169000FFF7D0FC001B022809D828688001F7D585
:1016A00034E000BFFFF7C6FC001B022802D903206C
:1016B000BDE8F88F28688001F4D427E00128F7D02E
:1016C000D9F80000E26900F4800191421CD1226A3D
:1016D00000F03F01914217D147F6C071626A0140A4
:1016E000B1EB821F10D1A26A4FF0FF3300F44031FA
:1016F00003EB5202B1EB024F06D194F82C1000F02C
:101700007060B0EB016F01D00120D1E70020CFE77E
:101710000438024000004742800E474200700040FB
:101720000000FFFF10B5401EB0F1807F01D3012003
:1017300010BD4FF0E02460610F21601700F070FCD5
:101740000020A06107202061002010BD7047704775
:10175000F8B5016804460868CA684B6910F00F0FB5
:101760004FF0000559D003F0010602F4907737439B
:1017700065D0C10705D0D10503D5616C41F00101E9
:101780006164410705D5D90703D0616C41F00201BE
:101790006164810705D5D90703D0616C41F004016C
:1017A0006164010707D502F02001314303D0616C69
:1017B00041F008016164616C00293AD0800604D5CB
:1017C000900602D5204600F0E8FA20684069616C76
:1017D000C0F38010090700D460B3204600F0B6FAC9
:1017E00020684069400621D52068143050E8001F69
:1017F00021F0400140E80012002AF5D1E06BA8B1C9
:101800006E490165E06BFFF7E9FA002811D0E06B43
:10181000016D01B0BDE8F040084783060FD593067F
:101820000DD52046BDE8F84000F0B7BA2046FFF7D6
:101830008EFFF8BD2046FFF78AFF6564F8BD266B72
:101840002023012E7DD1C6067BD5D60679D5086822
:101850004868009048694FF00206400641D5E16BA8
:10186000086840680004000CE8D0A28D8242E5D9E7
:10187000E085C869B0F5807F2DD020680C3050E835
:10188000001F21F4807140E80012002AF5D1206881
:10189000143050E8001F21F0010140E80012002A36
:1018A000F5D12068143050E8001F21F0400140E8D5
:1018B0000012002AF5D184F84230256320680C30EC
:1018C00050E8001F21F0100140E80012002AF5D175
:1018D000E06BFFF73AFA6663A08DE18D401A81B2A2
:1018E0002AE0A08DE18D401A81B2E08D0028A5D0BC
:1018F0000029A3D022680C3252E8000F20F4907027
:1019000042E80007002FF5D12068143050E8002F7E
:1019100022F0010240E80027002FF5D184F8423080
:10192000256320680C3050E8002F22F0100240E8B8
:101930000023002BF5D166632046FFF707FFF8BDB3
:10194000FFE705062BD5150629D594F84100212877
:10195000F5D1A068B0F5805F01D12069B0B1206AEF
:10196000411C2162216800784860E08C401E000420
:10197000000CE084E3D12068C16821F08001C160DF
:101980002068C16841F04001C160D8E7206A008842
:10199000C0F308004860206A801C2062E5E740062A
:1019A000CDD55006CBD5CA68204622F04002CA6089
:1019B00084F8413000F0C5F8C1E700003D1D000883
:1019C00070B5040004D094F84100002510B106E081
:1019D000012070BD84F84050204600F023F82420F8
:1019E00084F841002068C16821F40051C16020469C
:1019F00000F034FA2068016921F490410161206807
:101A0000416921F02A0141612068C16841F4005117
:101A1000C1606564202084F8410084F84200656359
:101A2000002070BD10B586B0044614216846FEF74C
:101A3000A4FC18492068884229D11748002102686F
:101A400042F010020260006800F010000590124899
:101A50001438026842F001020260006800F00100E0
:101A600005904FF4C06000900220CDE901010320F1
:101A700003900720049069460848FFF7C1F9002247
:101A800011462520FFF744FB2520FFF733FB06B066
:101A900010BD000000100140443802400000024028
:101AA00070472DE9F843044690F8410098461646E1
:101AB0000D46202802D00220BDE8F88385B17EB112
:101AC00000206064212084F84100FFF7B3FAA68467
:101AD0008146E684A0682027B0F5805F02D003E04D
:101AE0000120E9E7206910B12E4600250EE000260E
:101AF0000CE08021204600F037FAA8B9C6B116F8EC
:101B0000010B21684860E08C401EE084E08C4B466D
:101B10004FF00002CDF800800028EAD14FF04001DC
:101B2000204600F021FA40B184F841700320C3E759
:101B300035F8020BC0F30800E3E784F84170002099
:101B4000BAE77047FEE7000010B51B488AB0194994
:101B5000016005210024C0E901144FF44031C0E9BF
:101B6000034109014161047644768476C4760477A2
:101B70004477FEF7E0FE08B1FEF76BFC012000940D
:101B800001940294CDE90440CDE906400394089005
:101B90000E20099069460848FEF7CEFC08B1FEF712
:101BA00058FC0548FFF79EF802210348FEF753FC56
:101BB0000AB010BD0064004054010020094808B577
:101BC000016841F080010160016801F0800100912D
:101BD000016841F001010160006800F0010000901F
:101BE00008BD0000303802400C4810B50A490160B9
:101BF0004FF4E1314160002181600C22C160C0E9F5
:101C000004128161C161FFF7DBFE002803D0BDE84B
:101C10001040FEF71EBC10BD001001407C010020EA
:101C2000FEE7000000B589B00021089104910591FC
:101C30000821069189010291018808AB090A8DF8F3
:101C4000001001788DF8011041886A46090A8DF864
:101C5000021081788DF803108188090A8DF804102C
:101C600001798DF80510C188090A8DF80610807970
:101C70008DF8070002A90248FEF7FFFB09B000BD7E
:101C800054010020FEE770477047FFF7D9B9000004
:101C900030B593B030216846FEF76FFB14210CA8D5
:101CA000FEF76BFB1F480025016841F08051016081
:101CB000006800F0805011901B48016841F44041D9
:101CC00001600068022400F440401190012000905F
:101CD000000401908001CDE9064008AA0420B42147
:101CE00082E813000B906846FFF766FB08B172B6F6
:101CF000FEE7FFF73FFA08B172B6FEE70CA90F2026
:101D000081E831004FF4A0500F904FF480501090B4
:101D100005210CA8FFF766FA002801D072B6FEE78D
:101D200013B030BD403802400070004002480168E6
:101D300041F470010160704788ED00E010B5806BE0
:101D40000021C185C184FFF702FD10BD01680C317F
:101D500051E8002F22F4907241E80023002BF5D1C6
:101D60000168143151E8002F22F0010241E80023FC
:101D7000002BF5D1016B012909D101680C3151E823
:101D8000002F22F0100241E80023002BF5D1202182
:101D900080F8421000210163704708B590F84210A6
:101DA000222901D0022008BD82684FF480539A4254
:101DB00001D1016921B1816A9A421BD04AB10AE07E
:101DC0000268816A5268C2F308020A80816A891C2B
:101DD00008E0026972B10268526802F07F020A707C
:101DE000816A491C8162C18D491E0904090CC185A3
:101DF00003D01BE002685268F1E70168CA6822F06C
:101E00002002CA600168CA6822F48072CA60016850
:101E10004A6922F001024A61202180F84210002123
:101E20004163026B012A03D0FFF73AFE002008BD90
:101E3000016301680C3151E8002F22F0100241E8E3
:101E40000023002BF5D101680A68D20602D50A6882
:101E500049680091818DFFF779FCE7E770B504468A
:101E600000680169E26821F4405111430161216970
:101E7000A068E26908436169114308432168CA68A0
:101E800049F20C639A430243CA6020684169A2691F
:101E900021F440711143416131492068884202D0E8
:101EA0003049884202D1FFF747FA01E0FFF734FAE0
:101EB000E2690023192164253226B2F5004F6268D9
:101EC00028D0A0FB0101930F9200FEF7DFF9014635
:101ED000B0FBF5F06FF01802504301EB800006EB09
:101EE0000010B0FBF5F000F0F002B1FBF5F002EBF2
:101EF0000012B1FBF5F06FF01803584301EB8000BE
:101F000006EB0010B0FBF5F000F00F002168104464
:101F1000886070BDA0FB010192185B41FEF7B6F925
:101F20000146B0FBF5F00201B1FBF5F06FF01803CC
:101F3000584301EB800006EBC000B0FBF5F000F069
:101F4000F80002EB4002B1FBF5F0584301EB8000D2
:101F500006EBC000B0FBF5F000F00700D6E700008C
:101F600000100140001401402DE9F843984617463F
:101F70000D460446089E24E0701C22D0FFF75AF854
:101F8000A0EB0800B0421AD8CEB12068C16849075A
:101F900017D5802D15D0402D13D00168C9430907EE
:101FA0000FD401680025406800902046FFF7CEFE60
:101FB0000820606484F840500120BDE8F8830320C5
:101FC000FBE72068006835EA000004D00020B84232
:101FD000D2D00020F1E70120F9E700000148FFF727
:101FE000B7BB00007C010020FEE7000000B50AA09E
:101FF00089B000680890FF238DEC080A202269460A
:102000000648FFF74EFDFF23042208A90348FFF707
:1020100048FD09B000BD00000000807F7C01002069
:102020000907090E002804DB00F1E02080F8001405
:10203000704700F00F0000F1E02080F8141D704799
:10204000FFF706F8FFF724FEFFF7B8FDFFF77CFD6A
:10205000FFF7CAFDFEE700009FED304A70B520EEA5
:10206000040A60EE840A054601EB4514164670EE3C
:10207000600A2B48C4ED000A94ED020A30EE200AF3
:1020800010EE102A84ED020A824202DD9FED250A3D
:1020900006E010EE100A2449884203D99FED230A76
:1020A00084ED020A20EE810A1A46314684ED050AC3
:1020B00094ED021A284621EE211A84ED061AD4ED79
:1020C000011A30EE010AB0EE431A70EEE10AF0EEAA
:1020D000631A60EE820AC4ED070A30EE200AF0EEC1
:1020E000620A84ED030A00F02BF805EBC50006EB4D
:1020F00080000F49C068206194ED000A884284ED99
:10210000010A02DD9FED0B0A04E00B49884203D966
:102110009FED0A0A84ED040A70BD00000000104221
:102120000000484200004842000048C2000048C287
:1021300000A00C4600A00C4600A00CC600A00CC6D7
:1021400010B510EE103A2F4CA34202DD9FED2E0A7F
:1021500006E010EE103A2D4CA34201D99FED2C0A57
:102160009FED2C2A00EBC00001EB800020EE020A5C
:1021700002EE102A284AB8EEC22A30EE420A80ED5A
:10218000000A90ED022A32EE002A12EE101A80EDBB
:10219000022A914202DDB1EE042A06E012EE101A84
:1021A0001E4A914203D9B9EE042A80ED022A60EE5C
:1021B000200A22EE011A1A4AC0ED060A80ED071A1B
:1021C00090ED012A70EE810A30EE422A62EE211A69
:1021D000C0ED081A70EEA10A10EE901AC0ED030AC5
:1021E00080ED010A914202DD9FED0E0A06E010EE3D
:1021F000901A0D4A914203D99FED0C0A80ED030A13
:1022000010BD00000000FA430000FA430000FAC3CA
:102210000000FAC3000010420000A0400000A0C06F
:1022200000A00C4600A00C4600A00CC600A00CC6E6
:102230004FF04070E1EE100A70470000000000000F
:102240000000010203040607080900000000010263
:102250000304000074220008000000202400000095
:10226000E80100089822000824000020040800006B
:10227000040200080101010100000000000000004C
:10228000000000000000000001000000100000003D
:08229000000000000024F4002E
:04000005080001AD41
:00000001FF
