:020000040800F2
:10000000980600204D020008C712000821120008BF
:10001000C5120008390500087D1300080000000023
:10002000000000000000000000000000CB120008EB
:100030003B05000800000000C9120008CD120008AE
:1000400067020008670200086702000867020008EC
:1000500067020008670200086702000867020008DC
:1000600067020008670200086702000867020008CC
:1000700067020008670200086702000867020008BC
:1000800067020008670200086702000867020008AC
:10009000670200086702000867020008670200089C
:1000A000670200086702000867020008670200088C
:1000B000670200086702000867020008670200087C
:1000C000670200086702000867020008670200086C
:1000D000670200086702000867020008670200085C
:1000E000670200086702000867020008670200084C
:1000F000670200086702000867020008670200083C
:10010000670200086702000867020008670200082B
:10011000670200086702000867020008670200081B
:10012000670200086702000867020008670200080B
:1001300067020008670200086702000867020008FB
:1001400067020008670200086702000867020008EB
:1001500067020008670200086702000867020008DB
:1001600067020008670200086702000867020008CB
:10017000670200086702000867020008000000002C
:1001800067020008670200086702000867020008AB
:10019000670200086702000867020008670200089B
:1001A00000000000000000006702000800F002F8F4
:1001B00000F03CF80AA090E8000C82448344AAF1C5
:1001C0000107DA4501D100F031F8AFF2090EBAE8C3
:1001D0000F0013F0010F18BFFB1A43F0010318477B
:1001E0001412000034120000103A24BF78C878C1FD
:1001F000FAD8520724BF30C830C144BF04680C602D
:10020000704700000023002400250026103A28BF74
:1002100078C1FBD8520728BF30C148BF0B60704778
:100220001FB501F0D9F81FBD10B510BD00F0CFF813
:100230001146FFF7F5FF01F0B3F800F0EDF803B455
:10024000FFF7F2FF03BC00F0F5F800000948804713
:1002500009480047FEE7FEE7FEE7FEE7FEE7FEE7A8
:10026000FEE7FEE7FEE7FEE704480549054A064BC0
:10027000704700006D130008AD01000898000020D1
:1002800098060020980200209802002053EA020CF1
:1002900000F069802DE9F04B4FF00006002B1FBFE6
:1002A000B3FA83F503FA05F424FA05F65E4012BFAB
:1002B0001643B2FA82F502FA05F4C5F120051EBF15
:1002C00022FA05FC44EA0C04203556EA044C4FEAB5
:1002D000144418BF641C4FF000084FF0000990420E
:1002E00071EB030C39D3002919BFB1FA81F701FA78
:1002F00007F6B0FA80F700FA07F6C7F120071EBF2D
:1003000020FA07FC46EA0C062037B6FBF4FCA7EB04
:100310000507103F07F01F0BCBF120060CFA0BFB73
:100320002CFA06F644BFB3460026202FA4BF5E4633
:100330004FF0000B5BEA060C08BF4FF0010B19EB06
:100340000B09ABFB027C48EB0608C01B06FB02CC8A
:100350000BFB03CC71EB0C01C1E70B460246414697
:100360004846BDE8F08B13B54FF000004FF0000198
:10037000AFF30080BDE81C4070474FF0000200B5AD
:10038000134694469646203922BFA0E80C50A0E8B8
:100390000C50B1F12001BFF4F7AF090728BFA0E866
:1003A0000C5048BF0CC05DF804EB890028BF40F832
:1003B000042B08BF704748BF20F8022B11F0804F74
:1003C00018BF00F8012B704770477047704775469B
:1003D00000F02CF8AE4605006946534620F00700B1
:1003E000854618B020B5FFF73FFFBDE820404FF02D
:1003F00000064FF000074FF000084FF0000B21F00F
:100400000701AC46ACE8C009ACE8C009ACE8C009DB
:10041000ACE8C0098D46704710B50446AFF30080C4
:100420002046BDE81040FFF70ABF000000487047B3
:100430003800002001491820ABBEFEE7260002006C
:100440007047000010B588B0082B00D9082300249D
:1004500040EA01200694CDE9004004200290CDE955
:10046000034306AB6946024800F07CF808B010BDB3
:10047000100000207CB510EE103A244CA34202DD9F
:100480009FED230A06E010EE103A224CA34201D958
:100490009FED210A40F63C73994201DD194603E0C5
:1004A0001E4CA14200DA21469A4201DD1A4602E0C2
:1004B000002A00DA00220A24DFED190A91FBF4F188
:1004C00020EE200A92FBF4F2BDEEC00A54256943E7
:1004D00010EE103A6A431C0E8DF800401C0C8DF88B
:1004E00001401C0A8DF802408DF803300B0A8DF88C
:1004F00004308DF805108DF80620110A8DF80710CC
:1005000008236A460621FFF79DFF7CBD00A00C472B
:1005100000A00C4700A00CC700A00CC7C4F0FFFF50
:1005200000401C4608B500218DF8001001236A46E2
:100530000521FFF787FF08BDFEE7704772B6FEE7AB
:1005400090F82020012A07D0022A05D0416A41F400
:100550008021416201207047006842690A4342617C
:1005600000207047F0B590F820500468A468012D71
:1005700005D0022D03D0416A41F480214DE014F0F2
:10058000406F01D1E50045D5C4F301640125A540C4
:100590001D608D684FF4C0739DB1CE6835434E68C1
:1005A00045EAC605066803EB0417F5514FF4C2751A
:1005B000076805EB04150E697E51097D012905D0F8
:1005C00009E00E88CD6845EA4655EBE701684E59CB
:1005D00046F480764E511179D2F805504FF4C67624
:1005E00041EA0521056806EB0416A9511178D2F8F5
:1005F00001204FF4C47541EA0221026805EB04159D
:100600005151006803EB0411425842F0010242507C
:100610000020F0BD416A41F4001141620120F0BDAB
:1006200010B590F82020012A07D0022A05D0416A8F
:1006300041F480214162012010BD3B48D0F80022E6
:1006400042F00102C0F80022D0F8002222F47C52CD
:10065000C0F80022D0F800224B6A42EA0322C0F818
:1006600000220A7D02F01F0301229A40D0F81C32BA
:100670009343C0F81C32CB69B3B9D0F80C32934322
:10068000C0F80C328C894B6864F31F434C6900EB53
:10069000C404C4F840320C890B6864F31F434C69EE
:1006A00000EBC404C4F84432CB69012B16D1D0F856
:1006B0000C321343C0F80C320C884B6864F31F43B0
:1006C0004C6900EBC404C4F840320C89CB6864F375
:1006D0001F434C6900EBC404C4F844328B69002BFF
:1006E000D0F804320ED01343C0F804320B69002B4B
:1006F000D0F8143208D01343C0F81432096A012923
:1007000004D008E09343EFE79343F5E7D0F81C12D9
:100710001143C0F81C12D0F8001221F00101C0F8FA
:100720000012002010BD00000064004070B50400FD
:1007300003D094F8200010B104E0012070BD2046E1
:1007400000F082F82068016841F00101016000F0CA
:1007500009FA0546052604E000F004FA401B0A28C1
:1007600011D820684068C007F6D02068016821F0E1
:100770000201016000F0F6F905460BE000F0F2F925
:10078000401B0A2806D9606A40F40030606284F891
:100790002060D2E7206840688007EFD4207E0128DF
:1007A000206801683DD021F080010160607E012851
:1007B0002068016838D021F040010160A07E012846
:1007C0002068016833D021F020010160E07E01281B
:1007D000206801682ED041F010010160207F0128BF
:1007E0002068016829D021F008010160607F01289C
:1007F0002068016824D021F004010160D4E90201DD
:100800000843D4E90412114308436168491E0843B0
:100810002168C86100206062012084F82000002067
:1008200070BD41F08001C0E741F04001C5E741F0F3
:100830002001CAE721F01001CFE741F00801D4E719
:1008400041F00401D9E7000010B586B00446142138
:100850006846FFF792FD14492068884221D1134869
:100860000021026842F000720260006800F000702F
:1008700005900E481038026842F0010202600068DC
:1008800000F0010005904FF4C05000900220CDE927
:10089000010103200390092004906946044800F0F8
:1008A00047F806B010BD0000006400404038024028
:1008B0000000024070B5044690F82000012804D0E2
:1008C000606A40F40020606218E0022084F8200092
:1008D0002068016821F00101016000F043F905463C
:1008E0000EE000BF00F03EF9401B0A2808D9606AFC
:1008F00040F400306062052084F82000012070BDC3
:1009000020684068C007EDD1606270BD70B50446D4
:1009100000F028F90546601C02D004480078044421
:1009200000F020F9401BA042FAD370BD0000002067
:100930002DE9F84FDFF8F8A10022012403254FF03C
:100940000F090AF1040BAAF1040E00BF0B6804FAA8
:1009500002F63340B34270D10F7907F00307012F3D
:1009600001D0022F16D187684FEA420805FA08FC29
:1009700027EA0C07D1F80CC00CFA08FC4CEA070C6B
:10098000C0F808C04768B7430E79C6F30016964012
:100990003E4346600E79F643B6070AD0C7684FEA71
:1009A000420C05FA0CF6B7438E6806FA0CF63E4385
:1009B000C6600E7906F00306022E10D1D60800EBB1
:1009C0008608D8F8206057074FEAD76C09FA0CF769
:1009D000BE430F6907FA0CF73743C8F82070066862
:1009E0004FEA420C05FA0CF7BE430F7907F00307F4
:1009F00007FA0CF7374307604E6816F4403F1CD0E7
:100A00004C4E376847F480473760366822F003075A
:100A100006F480460096484E07EB060CDCF80868A2
:100A200097073F0F09FA07F826EA0806DFF80C8156
:100A3000404503D14FF0000841E072E0DFF800814B
:100A4000404502D14FF0010839E0DFF8F880404519
:100A500002D14FF0020832E0DFF8EC80404502D1CD
:100A60004FF003082BE0DFF8E480404502D14FF05F
:100A7000040824E0DFF8D880404502D14FF0050893
:100A80001DE0DFF8D080404502D14FF0060816E0A7
:100A9000DFF8C480404502D14FF007080FE0DFF8CF
:100AA000BC80404502D14FF0080808E0DFF8B08074
:100AB000404502D14FF0090801E04FF00A0808FA5A
:100AC00007F848EA0608CCF80888DAF800605746C4
:100AD000D1F804C09E435FEACC2C00D51E433E6093
:100AE000DBF800605F46D1F804C09E435FEA8C2CBF
:100AF00000D51E433E60DEF800607746D1F804C0A2
:100B00009E435FEA8C3C00D51E433E60084F083F81
:100B10003E68D1F804C09E435FEACC3C00D51E433A
:100B20003E60521C102AFFF411AFBDE8F88F0000A0
:100B3000083C0140443802400030014000000240BF
:100B40000004024000080240000C02400010024075
:100B50000014024000180240001C02400020024025
:100B60000024024001488068704700000000002017
:100B700002488168027811448160704700000020BB
:100B80000B4810B5016841F400710160016841F43F
:100B900080610160016841F480710160032000F010
:100BA00061F80F2000F006F800F024F8002010BDD6
:100BB000003C024070B50D4D04464FF47A71287820
:100BC000B1FBF0F00A490968B1FBF0F000F014FB4A
:100BD00048B9102C07D200222146501E00F022F8FE
:100BE00000206C6070BD012070BD0000000000207E
:100BF0000C0000200A4808B5016841F480410160FA
:100C0000006800F4804000900548001F016841F032
:100C100080510160006800F08050009008BD000025
:100C200044380240F0B40E4B1B680C46C3F3022359
:100C3000C3F10705042D00D90425191D072901D288
:100C4000002300E0DB1E012606FA05F1491E2140C3
:100C500099409E40761E16403143F0BC00F08FBB99
:100C60000CED00E0064900F0070208684FF6FF03AC
:100C7000184040EA0220034A104308607047000011
:100C80000CED00E00000FA052DE9F8431748016873
:100C900041F0805101600068154F00F0805001263E
:100CA00000903E64FFF75EFF05464FF47A78114CE2
:100CB00005E000BFFFF756FF401B40450DD86068B8
:100CC000C003F7D57E64FFF74DFF0546464607E0B3
:100CD000FFF748FF401BB04202D90320BDE8F8836C
:100CE00060688003F4D50020F8E700004038024037
:100CF00000000E42007000402DE9F0470E4605004E
:100D000065D0DFF81481D8F80000F7B200F00F00CA
:100D1000B04207D288F80070D8F8000000F00F0049
:100D2000B04254D128683D4C810712D5400703D505
:100D3000206840F4E05020602878000703D5206840
:100D400040F4604020602068A96820F0F00008436B
:100D500020602878C0072DD03049686808390128FC
:100D600012D0022813D0032811D00968890700295E
:100D70002DDA216821F0030101432160FFF7F2FE23
:100D8000814641F2883A0EE009688903EFE7096875
:100D90008901ECE7FFF7E6FEA0EB0901514502D916
:100DA0000320BDE8F0872068696800F00C00B0EB14
:100DB000810FEFD1D8F80010404601F00F01B14289
:100DC00007D90770006800F00F00B04201D0012081
:100DD000E7E72878400705D52068E96820F4E05067
:100DE000084320602878000706D52068296920F488
:100DF000604040EAC100206000F018F82168084A0D
:100E0000C1F30311515CC8400649086006480068F8
:100E1000FFF7D0FE0020C4E7003C02400838024043
:100E2000E21300080C00002004000020154810B553
:100E3000006810F00C02144813D04110042A0FD09F
:100E4000082A0ED10F4C241F2268236802F03F02AB
:100E50005B0207D52068C0F38810A0FB010106E003
:100E6000084610BD2168C1F38811A1FB00010023D1
:100E7000FFF70CFA2168C1F30141491C4900B0FB9E
:100E8000F1F010BD083802400024F4002DE9F84FBD
:100E900004006ED02078DFF84C93C007A9F1040558
:100EA0004AD009F104000168C1F38101012908D089
:100EB0000068C0F3810002280AD1D9F8000040027E
:100EC00006D52868800337D560680028E1D033E074
:100ED0006068B0F5803F10D0B0F5A02F286810D022
:100EE00020F480302860286820F480202860606822
:100EF000A8B1FFF737FE06460DE0286840F48030C1
:100F0000F4E740F480202860F7E700BFFFF72AFEEF
:100F1000801B642873D828688003F7D50CE0FFF79E
:100F200021FE064605E000BFFFF71CFE801B64287B
:100F3000F0D828688003F7D42078DFF8AC828007E7
:100F40004FF0000A3ED5A748001D016811F00C0FB4
:100F500008D00068C0F3810002280BD1D9F8000046
:100F6000400207D42868800716D5E068012800D120
:100F700012E033E1E068B8B10120C8F80000FFF7E3
:100F8000F1FD064605E000BFFFF7ECFD801B0228DF
:100F9000C0D828688007F7D52868216920F0F800B4
:100FA00040EAC10028600DE0C8F800A0FFF7DAFDB4
:100FB000064604E0FFF7D6FD801B02281FD82868EC
:100FC0008007F7D42078000722D5864F87486169CB
:100FD000703771B101210160FFF7C4FD064604E0DE
:100FE000FFF7C0FD801B022809D838688007F7D5B5
:100FF0000EE0C0F800A0FFF7B5FD064605E082E070
:10100000FFF7B0FD801B02287DD838688007F7D431
:101010002078400768D5DFF8CCB100270BF13C0BF6
:10102000DBF80000C0000BD4DBF8001041F0805169
:10103000CBF80010DBF80000012700F08050009092
:101040006B4E3068C00510D4306840F4807030605A
:10105000FFF788FD009005E0FFF784FD0099401A36
:10106000022850D83068C005F6D55E4EA0686C36B0
:1010700001280FD00528306810D020F00100306022
:10108000306820F004003060A068B8B1FFF76AFD56
:1010900000900FE0306840F00100F4E740F00400F9
:1010A0003060F7E7FFF75EFD0099411A41F28830A2
:1010B000814266D830688007F4D50EE0FFF752FD14
:1010C000009007E0FFF74EFD0099411A41F2883089
:1010D000814256D830688007F4D42FB1DBF8001075
:1010E00021F08051CBF80010A069C8B33D49091D1B
:1010F0000968C1F3810102294AD00228504607D06D
:10110000C8F8600000E03CE0FFF72CFD04463BE03F
:101110004746C8F86000FFF725FD064605E000BF1A
:10112000FFF720FD801B02282BD828688001F7D408
:10113000D4E907010843A16A2E4A490802EB01419C
:10114000626A41EA8211084394F82C1040EA016176
:10115000C9F8001001203866FFF704FD044606E0D8
:101160003EE000BFFFF7FEFC001B022809D82868FC
:101170008001F7D534E000BFFFF7F4FC001B022824
:1011800002D90320BDE8F88F28688001F4D427E055
:101190000128F7D0D9F80000E26900F480019142FB
:1011A0001CD1226A00F03F01914217D147F6C0716D
:1011B000626A0140B1EB821F10D1A26A4FF0FF3387
:1011C00000F4403103EB5202B1EB024F06D194F828
:1011D0002C1000F07060B0EB016F01D00120D1E75E
:1011E0000020CFE70438024000004742800E47420B
:1011F000007000400000FFFF10B5401EB0F1807F7E
:1012000001D3012010BD4FF0E02460610F21601771
:1012100000F0B5F80020A06107202061002010BD7B
:10122000FEE7000010B51B488AB01949016005218E
:101230000024C0E901144FF44031C0E90341090121
:101240004161047644768476C47604774477FFF768
:101250006DFA08B1FFF772F901200094019402942D
:10126000CDE90440CDE90640039408900E20099092
:1012700069460848FFF7D4F908B1FFF75FF9054858
:10128000FFF718FB02210348FFF75AF90AB010BD17
:101290000064004010000020094808B5016841F0D2
:1012A00080010160016801F080010091016841F056
:1012B00001010160006800F00100009008BD00001D
:1012C00030380240FEE7FEE770477047FFF750BC3A
:1012D00030B593B030216846FFF74FF814210CA8C1
:1012E000FFF74BF81F480025016841F0805101606D
:1012F000006800F0805011901B48016841F44041A3
:1013000001600068022400F4404011900120009028
:10131000000401908001CDE9064008AA0420B42110
:1013200082E813000B906846FFF7B0FD08B172B673
:10133000FEE7FFF7A9FC08B172B6FEE70CA90F2083
:1013400081E831004FF4A0500F904FF4805010907E
:1013500005210CA8FFF7D0FC002801D072B6FEE7EB
:1013600013B030BD403802400070004002480168B0
:1013700041F470010160704788ED00E0FEE7090765
:10138000090E002804DB00F1E02080F8001470470B
:1013900000F00F0000F1E02080F8141D70470000FD
:1013A0002DED028BFFF7ECFBFFF792FFFFF774FFC9
:1013B000FFF738FF0120FFF7B5F89FED068A0A22F4
:1013C0006421B0EE480A0120FFF754F86420FFF7CB
:1013D0009DFAF4E70000B4434FF04070E1EE100ACC
:1013E000704700000000000000000102030406072F
:1013F000080900001414000800000020100000007C
:10140000E8010008241400081000002088060000ED
:1014100004020008010000001000000000000000AD
:041420000024F400B0
:04000005080001AD41
:00000001FF
